:020000040800F2
:10000000F8940020C1010008096D0008DD590008BE
:10001000916900083D0B0008A98C00080000000051
:10002000000000000000000000000000417900080E
:10003000890F000800000000C1740008657C0008FA
:10004000DB010008DB010008DB010008DB01000820
:10005000DB010008DB010008DB010008DB01000810
:10006000DB010008DB010008DB010008DB01000800
:10007000810D0008DB010008910D0008DB0100087C
:10008000A10D0008B10D0008DB010008DB0100082C
:10009000410B0008DB010008DB010008DB01000860
:1000A000DB010008657D0008DB010008DB010008BA
:1000B000757D0008DB010008DB010008DB0100089A
:1000C000DB010008DB010008DB010008DB010008A0
:1000D000DB010008698C0008798C0008898C000815
:1000E000DB010008DB010008DB010008DB01000880
:1000F000DB010008DB010008DB010008DB01000870
:10010000DB010008DB010008DB010008DB0100085F
:10011000DB010008DB010008DB010008DB0100084F
:10012000DB010008C10D0008D10D0008DB0100084B
:10013000DB010008DB010008DB010008DB0100082F
:10014000510B0008610B0008DB010008DB0100080F
:10015000DB010008E10D0008DB010008998C0008B4
:10016000DB010008DB010008DB010008DB010008FF
:10017000DB010008DB010008DB01000800000000D3
:10018000DB010008DB010008DB010008DB010008DF
:10019000DB010008DB010008DB010008DB010008CF
:1001A0000000000000000000DB010008DFF80CD0B8
:1001B00000F0E2FB004800478D9E0008F894002004
:1001C0000648804706480047FEE7FEE7FEE7FEE7F1
:1001D000FEE7FEE7FEE7FEE7FEE7FEE7517D0008EB
:1001E000AD0100082DE9F05F0546002092469B46D0
:1001F00088460646814640241BE02846414647463D
:10020000224600F07FFA53465A46C01A914110D355
:1002100011461846224600F066FA2D1A67EB0108CF
:100220004F4622460120002100F05DFA17EB00093D
:100230004E41201EA4F10104DFDC484631462A4627
:100240004346BDE8F09F40EA01039B0703D009E065
:1002500008C9121F08C0042AFAD203E011F8013BB2
:1002600000F8013B521EF9D27047D2B201E000F80B
:10027000012B491EFBD270470022F6E710B513464A
:100280000A4604461946FFF7F0FF204610BD2DE947
:10029000FE4F804681EA0300C00F0C46009021F01B
:1002A000004123F00045B8EB0200A94105D24046C9
:1002B000214690461C460B46024623F00040104360
:1002C00047D0270DC7F30A00C3F30A510290401A22
:1002D000019040286BDAC3F3130040F4801B0098B0
:1002E000924620B10023D2EB030A63EB0B0B01987B
:1002F0005946C0F14002504600F0F5F906460D4659
:1003000050465946019A00F00DFA10EB0800614181
:10031000002487EA115284EAE7731A4340D0009A16
:1003200062B3019A012A4FEA075215DC001B61EB08
:1003300002014FF0004202EA0752CDE90042001CE0
:1003400041F5801132462B4600F044FA03B0BDE877
:10035000F08F40462146F9E7001B61EB0201001CCB
:1003600041F5801300185B412018A2F5001747EBF8
:10037000030140EAD570B6196D4111E06D084FEAEE
:10038000360645EAC0754FEA0752001B61EB0201D1
:10039000001C41F5801149084FEA30000019514115
:1003A00032462B4603B0BDE8F04F00F004BA009887
:1003B000012240000023D0EB020263EBE0730098BF
:1003C00021464FEAE074B8EB000061EB0401E9E775
:1003D00083F000435BE781F0004158E72DE9FE4FD1
:1003E00081EA030404F0004421F0004100944FF03E
:1003F000000B23F0004350EA01045ED052EA0304EC
:100400005BD0C3F30A54C1F30A552C44A4F2F3346D
:100410000194A0FB0254C1F3130141F48011C3F312
:10042000130343F4801301FB024400FB034E840AD0
:10043000970A44EA815447EA8357A4FB0768029568
:100440008D0A05FB07854FEA932C04FB0C54270506
:10045000029D4FEA065847EA1637B5EB08056EEBE2
:10046000070C870E920E47EA811742EA8312A7FB18
:100470000201B6EB0B0164EB00042B0D43EA0C33D5
:100480005E1844EB1C50DA465146E7FB0201C5F307
:1004900013044FEA0B3343EA14534FEA0432019C2E
:1004A00043EA0603A4F10C040294009CCDE900B4D5
:1004B00000F090F903B0BDE8F08F00200146F9E7A5
:1004C0002DE9F04D81EA030404F0004B21F00045D2
:1004D00014464FF0000A23F0004150EA050220D0F4
:1004E00054EA01021DD0C5F30A570246C5F31303AF
:1004F000C1F31300C1F30A5640F4801543F480138E
:10050000A7EB0608101BD64608F2FD3873EB050072
:1005100002D308F1010801E092185B41B8F1000F25
:1005200003DA00200146BDE8F08D00204FF4801171
:10053000064684460EE0171B73EB050705D3121B16
:1005400063EB050306434CEA010C49084FEA30000F
:1005500092185B4150EA0107EDD152EA030012D034
:1005600082EA040083EA0501084305D0101BAB4171
:1005700006D20122002306E000224FF0004302E0F1
:100580006FF0010253101AEB06004CEB085110EB10
:100590000A0041EB0B01BDE8F04D00F00CB930B59D
:1005A000041E71F1000404DB4FF00044404264EB90
:1005B0000101141E73F1000405DB1C464FF00043DB
:1005C000524263EB0403801A994101D3012030BDEC
:1005D000002030BD30B5041E71F1000404DB4FF083
:1005E0000044404264EB0101141E73F1000405DB7A
:1005F0001C464FF00043524263EB0403101A8B4138
:1006000001D3012030BD002030BD30B5041E71F192
:10061000000404DB4FF00044404264EB0101141E6F
:1006200073F1000405DB1C464FF00043524263EBBC
:100630000403801A994101D2012030BD002030BD51
:1006400030B4044696230800214604D0B62330BCBB
:10065000002200F082B820460021F8E700F00042B6
:1006600030F000400AD0C10D01F56071C0F31600F2
:1006700042EA0151C2084007114370470020014679
:10068000704701F0004330B421F0004150EA01020C
:1006900006D00A0DA2F56072C1F31301002A02DC34
:1006A00030BC00207047440F44EAC104C100E01888
:1006B00030BC00EBC25000F047B830B50B460146E5
:1006C00000202022012409E021FA02F59D4205D3F1
:1006D00003FA02F5491B04FA02F52844151EA2F19B
:1006E0000102F1DC30BD202A04DB203A00FA02F1DD
:1006F000002070479140C2F1200320FA03F3194310
:1007000090407047202A04DB203A21FA02F00021B1
:10071000704721FA02F3D040C2F120029140084311
:1007200019467047202A06DBCB17203A41FA02F01F
:1007300043EAE07306E041FA02F3D040C2F120023E
:1007400091400843194670470029A8BF7047401CD4
:10075000490008BF20F00100704710B4B0FA80FCD7
:1007600000FA0CF050EA010404BF10BC704749B114
:10077000CCF1200421FA04F411FA0CF118BF012184
:1007800021430843A3EB0C01CB1D4FEA00614FEA64
:10079000102042BF002010BC704700EBC350104433
:1007A0000029A4BF10BC7047401C490008BF20F0BE
:1007B000010010BC704710B5141E73F1000408DA74
:1007C000401C41F1000192185B411A4301D120F015
:1007D000010010BD2DE9F04D92469B4611B1B1FAD2
:1007E00081F202E0B0FA80F220329046FFF77BFF00
:1007F00004460F4640EA0A0041EA0B0153465A46B6
:10080000084313D0114653EA010019D0C8F1400241
:100810005046FFF777FF05460E465046594642467A
:10082000FFF761FF084305D0012004E02046394668
:10083000BDE8F08D0020054346EAE0762C433743BF
:100840000A986305E40AA0EB08000022FD0A44EAC6
:1008500047540A3002D500200146E9E70105101986
:100860006941DDE9084500196941BDE8F04DA2E79D
:100870002DE9F04D00231A461B1A8A4103DB0020A4
:100880000146BDE8F08DC1F30A52C1F3130141F4F2
:1008900080154FF0000BD10702D100186D41521E98
:1008A0000027044640F2FF11384601EB620A3E463B
:1008B0008046024600204FF48011FFF723FFC21943
:1008C0007141BB1846EB0100B4EB030C75EB000C57
:1008D00004D3E41A65EB000517460E46241908F107
:1008E00001006D4180463428E3DDF91946EB06002E
:1008F000091BA84103D24FF0FF32134601E000224A
:1009000013461BEB070046EB0A51BDE8F04DFFF71D
:1009100052BFC1F30A52C1F3130140F2FF3341F455
:1009200080119A4202DA00200146704740F23343B8
:100930009A42A2F2334202DC5242FFF7E3BEFFF7D3
:10094000D2BE000030B5041E71F1000404DB4FF08C
:100950000044404264EB0101141E73F1000405DB06
:100960001C464FF00043524263EB0403994208BF18
:10097000904230BD002070471CB5094800900948DE
:1009800001900546009C06E0E06840F0010394E811
:10099000070098471034AC42F6D3FFF70BFC000079
:1009A000580201087802010880B586B004900391CE
:1009B0000292049838B1FFE7029820B1FFE703984C
:1009C000022803D8FFE700200590B3E004980399BC
:1009D0000239029A00F0E4FBADF8060002980078B4
:1009E000013801460091092800F29E800099DFE855
:1009F00001F00514233241505F6E7D8CBDF8060076
:100A0000049A0399114401F8020C9DF80700049A16
:100A10000399114401F8010C89E0BDF80600049A1D
:100A20000399114401F8020C9DF80700049A0399F8
:100A3000114401F8010C7AE09DF80700049A03992B
:100A4000114401F8020CBDF80600049A0399114400
:100A500001F8010C6BE0BDF80600049A03991144FB
:100A600001F8020C9DF80700049A0399114401F85B
:100A7000010C5CE0BDF80600049A0399114401F8EA
:100A8000020C9DF80700049A0399114401F8010C27
:100A90004DE0BDF80600049A0399114401F8020CD8
:100AA0009DF80700049A0399114401F8010C3EE0F7
:100AB000BDF80600049A0399114401F8020C9DF850
:100AC0000700049A0399114401F8010C2FE0BDF8C6
:100AD0000600049A0399114401F8020C9DF80700DE
:100AE000049A0399114401F8010C20E0BDF80600B6
:100AF000049A0399114401F8020C9DF80700049A26
:100B00000399114401F8010C11E0BDF80600049AA4
:100B10000399114401F8020C9DF80700049A039907
:100B2000114401F8010C02E00020059002E00120D0
:100B30000590FFE7059806B080BD0000FFE7FEE7DF
:100B400080B540F22050C2F2000000F015FE80BDDA
:100B500080B540F24850C2F2000000F00DFE80BDAA
:100B600080B540F24850C2F2000000F005FE80BDA2
:100B700084B002908DF80710029820B1FFE79DF82D
:100B8000070018B9FFE700200390F5E09DF8070083
:100B9000029908709DF80700013801460091092864
:100BA00000F2E3800099DFE801F0051C30465C723A
:100BB000899FB6CB029948F20500488002994FF60A
:100BC000FF70888002990020C88002990120087275
:100BD0000299487202994FF66810C0F60000C8608A
:100BE000C6E0029941F221004880029900208880E5
:100BF0000299C880029908720299487202994EF6C9
:100C00006870C0F60000C860B2E0029941F22100AD
:100C1000488002994FF6FF70888002990020C880B2
:100C2000029908720299487202994EF66850C0F60D
:100C30000000C8609CE0029941F2210048800299BE
:100C40004FF6FF7088800299C880029901200872CF
:100C50000299487202994FF66870C0F60000C860A9
:100C600086E0029948F20500488002994FF6FF702D
:100C700088800299C88002990120087202994872FE
:100C800002994FF66850C0F60000C86070E0029903
:100C900048F20500488002990020888002994FF6AA
:100CA000FF70C88002990120087202994872029967
:100CB0004FF26870C0F60000C86059E0029941F236
:100CC0002100488002994FF6FF7088800299C88001
:100CD0000299012008720299487202994FF2683015
:100CE000C0F60000C86043E0029943F665504880B2
:100CF00002990020888002994FF6FF70C8800299FF
:100D0000012008720299487202994FF26810C0F6E9
:100D10000000C8602CE0029941F22100488002994D
:100D2000002088800299C8800299012008720299E7
:100D3000487202994FF26850C0F60000C86017E090
:100D4000029948F2050048800299002088800299A3
:100D5000C880029A012111720299487202994FF6D5
:100D60006830C0F60000C86002E00020039003E095
:100D7000FFE701200390FFE7039804B070470000ED
:100D800080B540F29060C2F2000001F097FA80BD99
:100D900080B540F2F060C2F2000001F08FFA80BD31
:100DA00080B540F2D050C2F2000001F087FA80BD59
:100DB00080B540F23060C2F2000001F07FFA80BDE1
:100DC00080B540F25070C2F2000001F077FA80BDA9
:100DD00080B540F27050C2F2000001F06FFA80BDA1
:100DE00080B540F2B070C2F2000001F067FA80BD39
:100DF00082B001900198007810384AF6AB21CAF60B
:100E0000AA21A0FB01100009009000994EF618508D
:100E1000C0F60000405C0199C8650098042807D31B
:100E2000FFE701990868042262F30900886506E07B
:100E30000199086840F2FF3290438865FFE7019806
:100E4000806D02B07047000086B0059000208DF8DC
:100E500013000598806A03900598806910BBFFE72E
:100E60000398029003281BD80299DFE801F0020DD5
:100E70000218059890F82F00C00720B1FFE7012065
:100E80008DF81300FFE70CE00598C06AB0F1C07F51
:100E900004D1FFE701208DF81300FFE701E000E037
:100EA000FFE745E005988069B0F5005F25D1FFE7D1
:100EB0000398019003281ED80199DFE801F002068B
:100EC000021101208DF8130016E0059890F82F000C
:100ED000C00720B1FFE701208DF81300FFE70BE00A
:100EE0000598C06AB0F1C07F04D1FFE701208DF8FA
:100EF0001300FFE700E0FFE719E0039800900328E4
:100F000004D3FFE70098032804D00EE001208DF8F9
:100F100013000BE0059890F82F00C00720B1FFE701
:100F200001208DF81300FFE700E0FFE7FFE7FFE790
:100F30009DF8130006B0704784B0039002910192AF
:100F4000009303980168086820F4802008600098E6
:100F500003990968486003988068402809D1FFE731
:100F60000198039909688860029803990968C86024
:100F700008E0029803990968886001980399096854
:100F8000C860FFE704B070477047000081B0009070
:100F9000009890ED0B0A90ED0C1A30EE410A01B06A
:100FA0007047000072B6FFE7FEE7000080B58AB028
:100FB000ADF82400ADF822104FF40070029000202C
:100FC00004900590042006909DF825008DF80400FB
:100FD000BDF824008DF805009DF823008DF806006B
:100FE000BDF822008DF8070040F24850C2F2000020
:100FF00002A901AA012300F035F920B1FFE7002082
:101000008DF8270003E001208DF82700FFE79DF809
:1010100027000AB080BD000085B004908DED030A62
:10102000CDED020A8DED011ACDED001A0398049959
:10103000C8630298049988640198049988670098A5
:101040000499086605B0704780B588B0ADF81C00FB
:101050004FF400700190002003900490022005904E
:101060009DF81D008DF80200BDF81C008DF80300EE
:1010700040F22050C2F2000001A90DF1020201234A
:1010800000F0F0F820B1FFE700208DF81F0003E02A
:1010900001208DF81F00FFE79DF81F0008B080BDFC
:1010A00083B08DED020ACDED010A9DED020A9DEDA2
:1010B000011A30EE410A8DED000A9DED000A9FED08
:1010C000141AB4EE410AF1EE10FA09DDFFE79DEDC6
:1010D000000A9FED101A30EE010A8DED000AFFE7BD
:1010E0009DED000A9FED0C1AB4EE410AF1EE10FAE4
:1010F00009DAFFE79DED000A9FED081A30EE010ABC
:101100008DED000AFFE79DED000A03B0704700BFB8
:10111000000034430000B4C3000034C30000B443F3
:1011200083B08DED020ACDED010A9DED020A9DED21
:10113000011A30EE010A8DED000A9DED000A9FEDC7
:10114000141AB4EE410AF1EE10FA09DDFFE79DED45
:10115000000A9FED101A30EE010A8DED000AFFE73C
:101160009DED000A9FED0C1AB4EE410AF1EE10FA63
:1011700009DAFFE79DED000A9FED081A30EE010A3B
:101180008DED000AFFE79DED000A03B0704700BF38
:10119000000034430000B4C3000034C30000B44373
:1011A00085B0039002910192039828B9FFE74FF6AA
:1011B000FF70ADF8120026E001988088ADF80200BB
:1011C000FFE70298411E029188B1FFE7BDF80210C7
:1011D0000198C068039A531C039312784A40D2B214
:1011E00030F8120080EA1120ADF80200E9E701981A
:1011F000C188BDF802004840ADF80200BDF8020009
:10120000ADF81200FFE7BDF8120005B0704700000E
:1012100084B002900191029890F820008DF80300AC
:101220009DF80300012805D0FFE79DF80300022880
:101230000AD1FFE7019A02980168486910434861A2
:1012400000208DF80F0008E00299486A40F48020E1
:10125000486201208DF80F00FFE79DF80F0004B0F1
:101260007047000088B00690059104920393069899
:1012700090F820008DF807000698006880680090BC
:101280000598806808B9FFE700E0FFE79DF80700D0
:10129000012806D0FFE79DF80700022840F0808073
:1012A000FFE79DF80300400700280CD4FFE79DF8F6
:1012B00003000007002806D4FFE79DF80300C006DE
:1012C000002864D5FFE70098C0F3016002900299FE
:1012D00001208840039908600598806868B9FFE795
:1012E00005980168C06840EA415006990968029A69
:1012F00001EB0211C1F880010EE005994A68886887
:10130000C96840EAC200084306990968029A01EBDD
:101310000211C1F88001FFE7059800690699096884
:10132000029A01EB0211C1F884010598007D0128A1
:101330000CD1FFE706980068029900EB0111D1F883
:10134000840140F48070C1F88401FFE7049840688C
:1013500006990968029A01EB0211C1F88C01049800
:10136000006806990968029A01EB0211C1F8880128
:1013700006980068029900EB0111D1F8800140F055
:101380000100C1F8800100208DF81F0011E00699CE
:10139000486A40F40010486201208DF81F0008E000
:1013A0000699486A40F48020486201208DF81F00A9
:1013B000FFE79DF81F0008B07047000086B004905A
:1013C0000391049890F820008DF803009DF8030025
:1013D000012806D0FFE79DF80300022840F0B08006
:1013E000FFE746F20040C4F2000001900199D1F8F5
:1013F000000240F00100C1F800020199D1F800029A
:1014000020F47C50C1F800020398426A0199D1F897
:10141000000240EA0220C1F800020398406900F08F
:101420001F01012088400290029A0199D1F81C0204
:101430009043C1F81C020398C069F0B9FFE7029A13
:101440000199D1F80C029043C1F80C02039A9088DC
:10145000D168526940EA0140019901EBC201C1F82B
:101460004002039A10889168526940EA014001994C
:1014700001EBC201C1F84402FFE70398C0690128EB
:101480001ED1FFE7029A0199D1F80C021043C1F86E
:101490000C02039A90881168526940EA0140019950
:1014A00001EBC201C1F84002039A90899168526928
:1014B00040EA0140019901EBC201C1F84402FFE793
:1014C0000398806940B9FFE7029A0199D1F80402B4
:1014D0009043C1F8040207E0029A0199D1F804028E
:1014E0001043C1F80402FFE70398006940B9FFE721
:1014F000029A0199D1F814029043C1F8140207E04E
:10150000029A0199D1F814021043C1F81402FFE7BE
:101510000398006A012808D1FFE7029A0199D1F8DF
:101520001C021043C1F81C02FFE70199D1F8000228
:1015300020F00100C1F8000200208DF8170008E03B
:101540000499486A40F48020486201208DF8170011
:10155000FFE79DF8170006B07047000081B00090CB
:1015600001B0704786B004900391029201930498F1
:1015700090F820008DF803009DF80300012806D0A4
:10158000FFE79DF80300022840F0E880FFE703989A
:1015900080B9FFE704980068C068800748B9FFE792
:1015A0000499486A40F40010486201208DF8170041
:1015B000DDE00FE0049800680069800748B9FFE7A4
:1015C0000499486A40F40010486201208DF8170021
:1015D000CDE0FFE704980068039900EB0110D0F814
:1015E000B00100F00400029988600298806858B940
:1015F000FFE704980068039900EB0110D0F8B001F0
:10160000400D029908600AE004980068039900EB15
:101610000110D0F8B001C00802994860FFE70498B3
:101620000068039900EB0110D0F8B00100F002004F
:101630000299C86004980068039900EB0110D0F883
:10164000B40100F00F00082804D3FFE70299082036
:1016500008610BE004980068039900EB0110D0F8D2
:10166000B40100F00F0002990861FFE704980068D8
:10167000039900EB0110D0F8B40180B2000A02997E
:10168000886104980068039900EB0110D0F8B40158
:10169000000C0299486104980068039900EB01105E
:1016A000D0F8B8010199087004980068039900EB1C
:1016B0000110D0F8B801000A019948700498006838
:1016C000039900EB0110D0F8B801000C0199887063
:1016D00004980068039900EB0110D0F8B801000EDF
:1016E0000199C87004980068039900EB0110D0F8C4
:1016F000BC010199087104980068039900EB01107E
:10170000D0F8BC01000A0199487104980068039957
:1017100000EB0110D0F8BC01000C0199887104980D
:101720000068039900EB0110D0F8BC01000E01998C
:10173000C871039838B9FFE704980168C86840F099
:101740002000C86006E004980168086940F02000A5
:101750000861FFE700208DF8170008E00499486A47
:1017600040F48020486201208DF81700FFE79DF8C3
:10177000170006B07047000080B58AB009900020BD
:1017800008900998006840690790099800684068C7
:101790000690099800688068059009980068C068FC
:1017A00004900998006800690390099800688069AE
:1017B00002909DF81C00C007002800F09480FFE70D
:1017C0009DF81400C00758B3FFE70998016801208D
:1017D00088609DF814008007002804D5FFE7099869
:1017E00000F0BCFC1BE09DF814004007002805D564
:1017F000FFE7089840F4006008900FE09DF814009F
:101800000007002805D5FFE7089840F480500890AD
:1018100003E0099800F09EFCFFE7FFE7FFE7FFE722
:101820009DF81500C00760B3FFE7099801684FF401
:10183000807088609DF815008007002804D5FFE7B8
:10184000099800F093FC1BE09DF815004007002864
:1018500005D5FFE7089840F4005008900FE09DF888
:1018600015000007002805D5FFE7089840F48040E0
:10187000089003E0099800F075FCFFE7FFE7FFE739
:10188000FFE79DF81600C00760B3FFE709980168FD
:101890004FF4803088609DF816008007002804D53A
:1018A000FFE7099800F06AFC1BE09DF8160040076E
:1018B000002805D5FFE7089840F4004008900FE0A5
:1018C0009DF816000007002805D5FFE7089840F4AA
:1018D0008030089003E0099800F04CFCFFE7FFE738
:1018E000FFE7FFE7FFE79DF81C000007002810D581
:1018F000FFE79DF81000C006002809D5FFE708980B
:1019000040F400700890099801681020C860FFE753
:10191000FFE79DF81C00400700280FD5FFE79DF862
:1019200010000007002808D5FFE709980168082083
:10193000C860099800F0D8FAFFE7FFE79DF81C009F
:10194000800700280BD5FFE709980068C06880076A
:1019500020B1FFE7099800F0CBFAFFE7FFE79DF819
:101960001C004006002810D5FFE79DF80C00C006BB
:10197000002809D5FFE7089840F48060089009988E
:10198000016810200861FFE7FFE79DF81C00800652
:1019900000280FD5FFE79DF80C000007002808D5A8
:1019A000FFE70998016808200861099800F02CFBFE
:1019B000FFE7FFE79DF81C00C00600280BD5FFE7F6
:1019C000099800680069800720B1FFE7099800F0D6
:1019D0001FFBFFE7FFE79DF81E00800700280FD5DB
:1019E000FFE79DF81800C006002808D5FFE7099812
:1019F000016810204860099800F062FBFFE7FFE7EC
:101A00009DF81E00C00778B1FFE79DF81800000799
:101A1000002808D5FFE70998016808204860099860
:101A200000F0B0FBFFE7FFE79DF81D00000600286F
:101A300040F18D80FFE79DF818004007002840F135
:101A40008180FFE79DF81D00C00750B1FFE79DF8BA
:101A50000800C00728B1FFE7089840F0010008908F
:101A6000FFE79DF81D00800700280BD5FFE79DF8D4
:101A700008008007002805D5FFE7089840F002001D
:101A80000890FFE79DF81D00400700280BD5FFE7F1
:101A90009DF808004007002805D5FFE7089840F0AA
:101AA00004000890FFE79DF81D000007002848D5B6
:101AB000FFE79DF8080010F0700F42D0FFE7029892
:101AC00000F0700001460191102814D0FFE7019842
:101AD000202815D0FFE70198302816D0FFE701989D
:101AE000402817D0FFE70198502818D0FFE7019849
:101AF000602819D01DE0089840F00800089019E00F
:101B0000089840F01000089014E0089840F0200079
:101B100008900FE0089840F0400008900AE008980C
:101B200040F08000089005E0089840F4807008902C
:101B300000E0FFE709980168886920F0700088617B
:101B4000FFE7FFE70998016804204860FFE708986D
:101B500048B1FFE7089A0999486A10434862099812
:101B6000FFF7FCFCFFE70AB080BD000080B584B041
:101B70000290029820B9FFE701208DF80F00E0E005
:101B8000029890F8200020B9FFE7029800F0DEF8F4
:101B9000FFE702980168086840F00100086001F062
:101BA0005BF80190FFE7029800684068C007A8B999
:101BB000FFE701F051F80199401A0B280DD3FFE718
:101BC0000299486A40F4003048620299052081F881
:101BD000200001208DF80F00B3E0E4E702980168CF
:101BE000086820F00200086001F036F80190FFE775
:101BF0000298006840688007002815D5FFE701F0CB
:101C00002BF80199401A0B280DD3FFE70299486A77
:101C100040F4003048620299052081F8200001203C
:101C20008DF80F008DE0E3E70298007E012807D1D0
:101C3000FFE702980168086840F08000086006E04D
:101C400002980168086820F080000860FFE70298A9
:101C5000407E012807D1FFE702980168086840F03C
:101C60004000086006E002980168086820F0400023
:101C70000860FFE70298807E012807D1FFE70298FD
:101C80000168086840F02000086006E002980168DA
:101C9000086820F020000860FFE70298C07E012855
:101CA00007D1FFE702980168086820F0100008607B
:101CB00006E002980168086840F010000860FFE73D
:101CC0000298007F012807D1FFE7029801680868A1
:101CD00040F00800086006E002980168086820F0FB
:101CE00008000860FFE70298407F012807D1FFE75E
:101CF00002980168086840F00400086006E0029855
:101D00000168086820F004000860FFE7029B19687A
:101D10005A689868D3F80CC040EA0C00D3F810C099
:101D200040EA0C005B691843013A1043C86102990C
:101D300000204862029A012182F820108DF80F00DD
:101D4000FFE79DF80F0004B080BD000080B592B0A1
:101D50001190002010900F900E900D900C90119803
:101D6000006846F20041C4F20001884249D1FFE711
:101D700040F27410C2F20000016801310160006895
:101D8000012812D1FFE7FFE700200B9043F6400047
:101D9000C4F20200016841F000710160006800F0C7
:101DA00000700B900B98FFE7FFE7FFE700200A9019
:101DB00043F63000C4F20200016841F008010160FE
:101DC000006800F008000A900A98FFE703200C90D2
:101DD00002210D91002105910E910F900920109084
:101DE00040F60040C4F202000CA900F011FD059A73
:101DF00014200690052101F00BF8069800F0FEFF74
:101E00006FE01198006846F60001C4F200018842B4
:101E100066D1FFE7FFE70020099043F64000C4F2D7
:101E20000200016841F080610160006800F080609C
:101E300009900998FFE740F27410C2F200000168AF
:101E4000013101600068012812D1FFE7FFE700209F
:101E5000089043F64000C4F20200016841F00071AE
:101E60000160006800F0007008900898FFE7FFE745
:101E7000FFE70020079043F63000C4F2020001683B
:101E800041F002010160006800F00200079007982D
:101E9000FFE74FF440500C9002200D90002003907B
:101EA0000E9003200F900920109040F20040C4F2E1
:101EB00002000CA900F0ACFC039A4020019005211F
:101EC000029100F0A5FF019800F098FF0299039A93
:101ED0004120049000F09CFF049800F08FFFFFE782
:101EE000FFE712B080BD000081B0009001B07047E4
:101EF00080B58CB00B900B98006846F20041C4F29C
:101F00000001884240F07E80FFE741F20000C4F209
:101F100002004FF4006100F073FE0B98002104AA48
:101F200002ABFFF71FFB40F2E441C2F200010120C7
:101F300008700498A0F201200146019108285FD89A
:101F40000199DFE801F00F5D325D5D5D5D1905000F
:101F500040F2B040C2F20000AA21017602A904F0CA
:101F600019FD4EE040F22C40C2F20000CC21017677
:101F700002A904F00FFD44E09DF8080041F2700151
:101F8000C2F2000108709DF8090048709DF80A002F
:101F90009DF80B2040EA022048809DF80C009DF837
:101FA0000D2040EA022088802BE040F2E641C2F298
:101FB0000001012008709DF808109DF8090040EA12
:101FC000012040F2E841C2F2000108809DF80A2099
:101FD0009DF80B0040EA022048809DF80C209DF8F7
:101FE0000D0040EA022088809DF80E109DF80F0039
:101FF00040EA012040F27811C2F20001088000E0BE
:10200000FFE7FFE70CB080BD81B0009001B07047E2
:1020100080B58CB00B900B98006846F60001C4F2B6
:10202000000188424AD1FFE741F20040C4F20200B9
:102030004FF4804100F0E4FD0B980121009104AAC7
:1020400002ABFFF78FFA009840F2E541C2F20001BF
:1020500008700498019040F20121884216D0FFE7F1
:10206000019840F2022188421AD0FFE7019840F21D
:102070000521884220D1FFE740F2C430C2F20000BF
:10208000AA21017602A904F085FC16E040F2F400D2
:10209000C2F20000BB21017602A904F07BFC0CE037
:1020A00040F2F400C2F20000BB2180F8381020306A
:1020B00002A904F06FFC00E0FFE7FFE70CB080BD71
:1020C00081B0009001B0704780B584B00290029852
:1020D00090F8200001282FD1FFE70299022081F813
:1020E000200002980168086820F00100086000F0F4
:1020F000B3FD0190FFE7029800684068C007A8B1EF
:10210000FFE700F0A9FD0199401A0B280DD3FFE766
:102110000299486A40F4003048620299052081F82B
:10212000200001208DF80F000FE0E4E70299002065
:1021300048628DF80F0008E00299486A40F40020D8
:10214000486201208DF80F00FFE79DF80F0004B0F2
:1021500080BD000081B0009001B0704781B0009058
:1021600001B0704781B0009001B0704781B000901D
:1021700001B0704781B0009001B0704781B000900D
:1021800001B0704781B0009001B0704780B584B055
:1021900002900298806D019000F05EFD0090029820
:1021A00090F8350002280DD0FFE70299802048659D
:1021B000FFE70299002081F83400FFE701208DF845
:1021C0000F0055E002980168086820F016000860CA
:1021D00002980168486920F0800048610298006C0C
:1021E00020B9FFE70298806C38B1FFE702980168D8
:1021F000086820F008000860FFE702980168086896
:1022000020F001000860FFE7029800680068C0073E
:10221000C8B1FFE700F020FD0099401A062811D34D
:10222000FFE70299202048650299032081F83500D4
:10223000FFE70299002081F83400FFE703208DF8C2
:102240000F0015E0E0E70298C16D3F20884001993A
:1022500088600299012081F83500FFE7029900208B
:1022600081F83400FFE7FFE700208DF80F00FFE75B
:102270009DF80F0004B080BD82B00090009890F8E7
:102280003500022807D0FFE700998020486501202B
:102290008DF807000EE00099052081F835000098C0
:1022A0000168086820F001000860FFE700208DF851
:1022B0000700FFE79DF8070002B0704780B586B0C1
:1022C00005900020039040F20800C2F20000006870
:1022D00048F2B511C1F64E31A0FB0110800A029000
:1022E0000598806D01900198006804900498059904
:1022F000C96DC840000700281AD5FFE70598006897
:1023000000684007002812D5FFE7059801680868B3
:1023100020F0040008600598C16D082088400199EC
:1023200088600599486D40F001004865FFE7FFE7C8
:1023300004980599C96DC840C007A0B1FFE705988A
:1023400000684069000600280CD5FFE70598C16DBC
:1023500001208840019988600599486D40F002008D
:102360004865FFE7FFE704980599C96DC840400735
:10237000002814D5FFE7059800680068800700284A
:102380000CD5FFE70598C16D04208840019988604D
:102390000599486D40F004004865FFE7FFE70498A1
:1023A0000599C96DC840C006002847D5FFE70598C4
:1023B00000680068000700283FD5FFE70598C16D59
:1023C00010208840019988600598006800684003E3
:1023D00000281AD5FFE70598006800680003002868
:1023E00009D4FFE70598006C20B1FFE70598016C60
:1023F0008847FFE708E00598806C20B1FFE7059863
:10240000816C8847FFE7FFE716E0059800680068E1
:10241000C005002807D4FFE705980168086820F088
:1024200008000860FFE70598006C20B1FFE70598F9
:10243000016C8847FFE7FFE7FFE7FFE7049805998E
:10244000C96DC8408006002840F18D80FFE70598DF
:1024500000680068C006002840F18480FFE7059806
:10246000C16D2020884001998860059890F835005A
:10247000052834D1FFE705980168086820F01600A8
:10248000086005980168486920F080004861059857
:10249000006C20B9FFE70598806C38B1FFE705981C
:1024A0000168086820F008000860FFE70598C16D22
:1024B0003F208840019988600599012081F8350006
:1024C000FFE70599002081F83400FFE70598006DCB
:1024D00020B1FFE70598016D8847FFE77BE005988D
:1024E00000680068400300281AD5FFE705980068D7
:1024F00000680003002809D4FFE70598406C20B16C
:10250000FFE70598416C8847FFE708E00598C06B36
:1025100020B1FFE70598C16B8847FFE7FFE720E0A0
:10252000059800680068C005002811D4FFE70598E9
:102530000168086820F0100008600599012081F802
:102540003500FFE70599002081F83400FFE7FFE739
:102550000598C06B20B1FFE70598C16B8847FFE77E
:10256000FFE7FFE7FFE70598406DA0B3FFE7059899
:10257000406DC00730B3FFE70599052081F83500AD
:1025800005980168086820F001000860FFE70398DB
:10259000013003900299884201D9FFE707E0FFE785
:1025A000059800680068C0070028F0D1FFE705998A
:1025B000012081F83500FFE70599002081F83400FB
:1025C000FFE7FFE70598C06C20B1FFE70598C16CF5
:1025D0008847FFE7FFE706B080BD000080B586B002
:1025E00004900020039000F037FB0290049820B97B
:1025F000FFE701208DF81700A3E00498406A08B1B6
:10260000FFE7FFE70499022081F83500FFE704990E
:10261000002081F83400FFE704980168086820F082
:1026200001000860FFE7049800680068C00790B1E7
:10263000FFE700F011FB0299401A06280AD3FFE7D2
:102640000499202048650499032081F835008DF80D
:10265000170076E0E7E704980068006803900398A5
:1026600048F23F01CFF21001084003900499009115
:102670004868D1F808C0CB680A6940EA0C001843E2
:1026800010434A6910438A691043CA691043096AB2
:1026900001430398084303900498406A042808D132
:1026A000FFE70499C86A096B014303980843039044
:1026B000FFE7039804990968086004980068406976
:1026C0000390039820F0070003900498416A039850
:1026D000084303900498406A04281AD1FFE704983D
:1026E000816A0398084303900498C06A80B1FFE7A9
:1026F0000498FEF7A9FB50B1FFE704994020486514
:102700000499012081F835008DF8170019E0FFE7E2
:10271000FFE703980499096848610498FEF768FB8D
:1027200001900498C16D3F20884001998860049908
:1027300000204865049A012182F835108DF81700B1
:10274000FFE79DF8170006B080BD000080B588B097
:10275000069005910492039300208DF80B000698D3
:10276000806D0190FFE7069890F83400012804D1AD
:10277000FFE702208DF81F0045E00699012081F84F
:102780003400FFE7FFE7069890F8350001282BD1C9
:10279000FFE70699022081F8350006990020486578
:1027A00006980599049A039BFEF7C6FB0698C16D2F
:1027B0003F2088400199886006980168086840F0C9
:1027C000160008600698006C38B1FFE706980168AB
:1027D000086840F008000860FFE70698016808688C
:1027E00040F00100086009E0FFE70699002081F849
:1027F0003400FFE702208DF80B00FFE79DF80B0087
:102800008DF81F00FFE79DF81F0008B080BD000095
:1028100090B00F900E9100200C900B900A900D90AC
:10282000FFE70D980F2800F2E881FFE70D990120DE
:1028300088400C900E9800680C9908400B900B98FB
:102840000C99884240F0D481FFE70E98406800F070
:102850000300012807D0FFE70E98406800F003004E
:1028600002282FD1FFE70F9880680A900D98410049
:10287000032000FA01F10A9888430A900E98C06874
:102880000D99490000FA01F10A9808430A900A9844
:102890000F9988600F9840680A900D99012000FAFE
:1028A00001F10A9888430A900E984068C0F300101E
:1028B0000D9900FA01F10A9808430A900A980F99B5
:1028C0004860FFE70E98406800F00300032818D026
:1028D000FFE70F98C0680A900D984100032000FAA6
:1028E00001F10A9888430A900E9880680D99490072
:1028F00000FA01F10A9808430A900A980F99C860F3
:10290000FFE70E98406800F00300022826D1FFE799
:102910000F980D996FF0030202EA51010844006A12
:102920000A900D9800F0070081000F2000FA01F1D5
:102930000A9888430A900E9800690D9901F00701E2
:10294000890000FA01F10A9808430A900A980F9941
:102950000D9B02EA530211440862FFE70F980068DA
:102960000A900D984100032000FA01F10A9888436B
:102970000A900E98406800F003000D99490000FA93
:1029800001F10A9808430A900A980F9908600E9876
:1029900080798007002800F02A81FFE7FFE7002008
:1029A000099043F64400C4F20200016841F48041FA
:1029B0000160006800F4804009900998FFE70D98D5
:1029C00020F0030043F60801C4F2010140580A90C8
:1029D0000D9800F0030081000F2000FA01F10A9821
:1029E00088430A900F980021C4F20201884203D163
:1029F000FFE7002008907AE00F9840F20041C4F20F
:102A00000201884203D1FFE7012007906CE00F9894
:102A100040F60001C4F20201884203D1FFE7022020
:102A200006905EE00F9840F60041C4F20201884231
:102A300003D1FFE70320059050E00F9841F2000119
:102A4000C4F20201884203D1FFE70420049042E06F
:102A50000F9841F20041C4F20201884203D1FFE71E
:102A60000520039034E00F9841F60001C4F2020102
:102A7000884203D1FFE70620029026E00F9841F636
:102A80000041C4F20201884203D1FFE70720019010
:102A900018E00F9842F20001C4F20201884203D10B
:102AA000FFE7082000900AE00F9942F20042C4F2CA
:102AB00002020A20914208BF09200090FFE7009817
:102AC0000190FFE701980290FFE702980390FFE76B
:102AD00003980490FFE704980590FFE70598069097
:102AE000FFE706980790FFE707980890FFE7089828
:102AF000C0B20D9901F00301890000FA01F10A98B2
:102B000008430A900A980D9921F0030143F6080240
:102B1000C4F20102885043F60840C4F20100006884
:102B20000A900B990A9888430A900E988079C006FB
:102B3000002805D5FFE70B990A9808430A90FFE79C
:102B40000A9843F60841C4F20101086043F60C40BC
:102B5000C4F2010000680A900B990A9888430A9011
:102B60000E9880798006002805D5FFE70B990A9812
:102B700008430A90FFE70A9843F60C41C4F20101AA
:102B8000086043F60440C4F2010000680A900B9903
:102B90000A9888430A900E9880798007002805D506
:102BA000FFE70B990A9808430A90FFE70A9843F653
:102BB0000441C4F20101086043F60040C4F2010080
:102BC00000680A900B990A9888430A900E988079B9
:102BD000C00728B1FFE70B990A9808430A90FFE75E
:102BE0000A9843F60041C4F201010860FFE7FFE7DD
:102BF000FFE70D9801300D9013E610B0704700000C
:102C000083B00290ADF80610029840690090009AD7
:102C1000BDF8060002EA0001904340EA0140029933
:102C2000886103B07047000082B00190ADF80210D7
:102C30008DF801209DF8010028B1FFE7BDF80200E2
:102C40000199886105E0BDF80200000401998861DE
:102C5000FFE702B07047000044F68440C2F2000073
:102C60000068704740F21000C2F20000027844F69B
:102C70008441C2F2000108681044086070470000F7
:102C800080B543F60041C4F20201086840F40070C8
:102C90000860086840F480600860086840F480704C
:102CA0000860032000F0CEF80F2000F005F800F0D7
:102CB00079F8002080BD000080B58CB00B9000201A
:102CC00004900390FFE70020009043F64000C4F218
:102CD0000200016841F001010160006800F001009C
:102CE00000900098FFE706A802A900F045FA0998AD
:102CF0000490049820B9FFE700F06EFA059004E014
:102D000000F06AFA40000590FFE705984DF68361F0
:102D1000C4F21B31A0FB01014FF0FF3000EB9140EA
:102D2000039040F6A000C2F200004FF08041016025
:102D300040F2E731C1600399416000210161816087
:102D4000816100F0DBFE8DF807009DF8070028BBCD
:102D5000FFE740F6A000C2F2000000F0BBFF8DF8D4
:102D600007009DF80700C0B9FFE71C2000F046F8F7
:102D70000B980F280CD8FFE70B991C20002200F0BD
:102D800047F80B9840F21401C2F20001086003E01A
:102D900001208DF80700FFE7FFE7FFE79DF8070038
:102DA0000CB080BD80B582B0FFE70020019043F6F3
:102DB0004400C4F20200016841F4804101600068EF
:102DC00000F4804001900198FFE7FFE700200090A9
:102DD00043F64000C4F20200016841F080510160F6
:102DE000006800F0805000900098FFE76FF001004D
:102DF0000F21002200F00CF802B080BD80B582B037
:102E00008DF807009DF9070006F08AFA02B080BD30
:102E100080B586B08DF817000491039200200290CF
:102E200006F096FA02909DF9170001900298049915
:102E3000039A04F041FA0146019806F091FA06B0AF
:102E400080BD000080B582B00190019806F0CCFAF8
:102E500002B080BD80B584B000200290FFE7002062
:102E6000019043F64000C4F20200016841F0805135
:102E70000160006800F0805001900198FFE7402158
:102E8000C4F20E2101200860FFF7E6FE0290FFE782
:102E900047F20400C4F20000006800F48030B0F58E
:102EA000803F0DD0FFE7FFF7D7FE0299401AB0F53B
:102EB0007A7F04D9FFE703208DF80F0025E0E7E7CC
:102EC0004421C4F20E2101200860FFF7C5FE0290E4
:102ED000FFE747F20400C4F20000006800F400308D
:102EE000B0F5003F0DD0FFE7FFF7B6FE0299401A9C
:102EF000B0F57A7F04D9FFE703208DF80F0004E0D6
:102F0000E7E700208DF80F00FFE79DF80F0004B001
:102F100080BD000080B584B002900191029820B974
:102F2000FFE701208DF80F0021E1019843F60041F1
:102F3000C4F20201096801F00F01884212D9FFE7CB
:102F4000019943F60040C4F202000170006800F0ED
:102F50000F000199884204D0FFE701208DF80F008F
:102F600005E1FFE702980078800700282AD5FFE7EF
:102F7000029800784007002809D5FFE743F60801CA
:102F8000C4F20201086840F4E0500860FFE70298CC
:102F900000780007002809D5FFE743F60801C4F2CE
:102FA0000201086840F460400860FFE743F608014A
:102FB000C4F20201086820F0F000029A92681043FF
:102FC0000860FFE702980078C00700286ED0FFE78E
:102FD00002984068012811D1FFE743F60000C4F2CF
:102FE0000200006800F400310020B0EB514F04D122
:102FF000FFE701208DF80F00B9E02CE0029840684F
:10300000022805D0FFE702984068032811D1FFE7A6
:1030100043F60000C4F20200006800F000710020D6
:10302000B0EB516F04D1FFE701208DF80F009EE057
:1030300010E043F60000C4F20200006800F0020154
:103040000020B0EB510F04D1FFE701208DF80F00F5
:103050008DE0FFE7FFE743F60801C4F202010868CC
:1030600020F00300029A526810430860FFF7F4FD55
:103070000090FFE743F60800C4F20200006800F089
:103080000C0002994968B0EB810F0ED0FFE7FFF703
:10309000E3FD0099401A41F28931884204D3FFE7E9
:1030A00003208DF80F0062E0E4E7FFE7019843F6A4
:1030B0000041C4F20201096801F00F01884212D2F6
:1030C000FFE7019943F60040C4F202000170006876
:1030D00000F00F000199884204D0FFE701208DF82D
:1030E0000F0044E0FFE702980078400700280CD565
:1030F000FFE743F60801C4F20201086820F4E0503B
:10310000029AD26810430860FFE70298007800072F
:1031100000280DD5FFE743F60801C4F20201086854
:1031200020F46040029A126940EAC2000860FFE79A
:1031300000F076F843F60801C4F202010968C9B24A
:103140000A094EF60051C0F60001895CC84040F201
:103150000801C2F20001086040F21400C2F200004F
:103160000068FFF7A9FD00208DF80F00FFE79DF82C
:103170000F0004B080BD000082B001900091019961
:103180000F20086043F60800C4F20200016801F055
:103190000301019A5160016801F0F001019A916008
:1031A000016801F4E051019AD160006800F46040C8
:1031B000C0080199086143F60040C4F202000068AB
:1031C00000F00F000099086002B0704740F208005C
:1031D000C2F200000068704780B5FFF7F7FF43F6C2
:1031E0000801C4F202010968C1F382224EF61051AF
:1031F000C0F60001895CC84080BD000080B5FFF7C3
:10320000E5FF43F60801C4F20201096889B24A0BDE
:103210004EF61051C0F60001895CC84080BD000028
:1032200080B586B00020059004900390029043F68C
:103230000800C4F20200006800F00C000146019191
:1032400040B1FFE7019804280AD0FFE70198082859
:103250000CD04FE042F20040C0F2F40002904FE088
:1032600041F60030C0F2B700029049E043F6040096
:10327000C4F20200016801F03F01059100684002BC
:10328000002813D5FFE743F60400C4F202000068EB
:10329000C0F3881041F60031C0F2B701A0FB010174
:1032A000059A0023FCF79EFF049012E043F6040009
:1032B000C4F202000068C0F3881042F20041C0F27C
:1032C000F401A0FB0101059A0023FCF78BFF049099
:1032D000FFE743F60400C4F20200006800F4403146
:1032E000022000EBD130039004980399B0FBF1F079
:1032F000029005E042F20040C0F2F4000290FFE7C5
:10330000029806B080BD000080B586B00490049895
:1033100020B9FFE701208DF8170050E304980078EA
:10332000C007002800F0A580FFE743F60800C4F2BC
:103330000200006800F00C00042813D0FFE743F6F9
:103340000800C4F20200006800F00C0008281ED13A
:10335000FFE743F60400C4F20200006840020028C0
:1033600015D5FFE743F60000C4F20200006800F440
:1033700000310020B0EB514F08D0FFE704984068BF
:1033800020B9FFE701208DF8170018E370E0FFE790
:1033900004984068B0F5803F09D1FFE743F600018B
:1033A000C4F20201086840F48030086020E004980C
:1033B0004068B0F5A02F0DD1FFE743F60001C4F23D
:1033C0000201086840F480200860086840F48030FA
:1033D00008600CE043F60001C4F20201086820F422
:1033E00080300860086820F480200860FFE7FFE76D
:1033F000FFE704984068E8B1FFE7FFF72DFC039072
:10340000FFE743F60000C4F20200006800F4003158
:103410000020B0EB514F0CD1FFE7FFF71DFC0399E3
:10342000401A652804D3FFE703208DF81700C6E291
:10343000E7E71CE0FFF710FC0390FFE743F600000E
:10344000C4F20200006800F400310020B0EB514FDC
:103450000CD0FFE7FFF700FC0399401A652804D35E
:10346000FFE703208DF81700A9E2E7E7FFE7FFE792
:10347000FFE7049800788007002840F19680FFE776
:1034800043F60800C4F20200006810F00C0F13D0DD
:10349000FFE743F60800C4F20200006800F00C00E9
:1034A00008282CD1FFE743F60400C4F202000068AC
:1034B0004002002823D4FFE743F60000C4F20200D4
:1034C000006800F002010020B0EB510F09D0FFE7C7
:1034D0000498C068012804D0FFE701208DF8170088
:1034E0006DE243F60001C4F20201086820F0F80022
:1034F000049A126940EAC2000860FFE754E00498A9
:10350000C06870B3FFE70021C4F2472101200860C2
:10351000FFF7A2FB0390FFE743F60000C4F20200AE
:10352000006800F002010020B0EB510F0CD1FFE762
:10353000FFF792FB0399401A032804D3FFE7032007
:103540008DF817003BE2E7E743F60001C4F2020101
:10355000086820F0F800049A126940EAC200086086
:1035600021E00021C4F2472100200860FFF774FB2E
:103570000390FFE743F60000C4F20200006800F089
:1035800002010020B0EB510F0CD0FFE7FFF764FB06
:103590000399401A032804D3FFE703208DF817008E
:1035A0000DE2E7E7FFE7FFE7FFE704980078000791
:1035B00000284BD5FFE70498406918B3FFE740F6B1
:1035C0008061C4F2472101200860FFF745FB0390AA
:1035D000FFE743F67400C4F20200006800F0020145
:1035E0000020B0EB510F0CD1FFE7FFF735FB03993B
:1035F000401A032804D3FFE703208DF81700DEE10B
:10360000E7E722E040F68061C4F24721002008602D
:10361000FFF722FB0390FFE743F67400C4F20200B9
:10362000006800F002010020B0EB510F0CD0FFE762
:10363000FFF712FB0399401A032804D3FFE7032086
:103640008DF81700BBE1E7E7FFE7FFE70498007894
:103650004007002840F1CE80FFE700208DF80700EA
:1036600043F64000C4F202000068C000002815D4F0
:10367000FFE7FFE70020009043F64000C4F202009D
:10368000016841F080510160006800F080500090B6
:103690000098FFE701208DF80700FFE747F20000E0
:1036A000C4F200000068C005002822D4FFE747F2FA
:1036B0000001C4F20001086840F480700860FFF760
:1036C000CBFA0390FFE747F20000C4F20000006865
:1036D000C00500280CD4FFE7FFF7BEFA0399401A93
:1036E000032804D3FFE703208DF8170067E1EAE71A
:1036F000FFE7FFE704988068012809D1FFE743F658
:103700007001C4F20201086840F0010008601FE087
:103710000498806805280DD1FFE743F67001C4F2D4
:103720000201086840F004000860086840F00100E9
:1037300008600CE043F67001C4F20201086820F052
:1037400001000860086820F004000860FFE7FFE758
:10375000FFE704988068F8B1FFE7FFF77DFA039070
:10376000FFE743F67000C4F20200006800F00201B7
:103770000020B0EB510F0ED1FFE7FFF76DFA039970
:10378000401A41F28931884204D3FFE703208DF8C3
:10379000170014E1E5E71EE0FFF75EFA0390FFE78C
:1037A00043F67000C4F20200006800F0020100203D
:1037B000B0EB510F0ED0FFE7FFF74EFA0399401A16
:1037C00041F28931884204D3FFE703208DF81700C6
:1037D000F5E0E5E7FFE79DF80700012809D1FFE7DD
:1037E00043F64001C4F20201086820F080500860EE
:1037F000FFE7FFE704988069002800F0DC80FFE71E
:1038000043F60800C4F20200006800F00C0008282B
:1038100000F08580FFE70498806902285CD1FFE70B
:103820006021C4F2472100200860FFF715FA0390D9
:10383000FFE743F60000C4F20200006800F00071E8
:103840000020B0EB516F0CD0FFE7FFF705FA0399AA
:10385000401A032804D3FFE703208DF81700AEE0D9
:10386000E7E70499C869D1F820C04B6A8A6A40EA40
:103870000C0040EA8310D2034FF6FF739A43A2F57F
:1038800080321043C96A40EA016043F60401C4F281
:10389000020108606021C4F2472101200860FFF79F
:1038A000DBF90390FFE743F60000C4F20200006872
:1038B00000F000710020B0EB516F0CD1FFE7FFF773
:1038C000CBF90399401A032804D3FFE703208DF8AE
:1038D000170074E0E7E721E06021C4F247210020EF
:1038E0000860FFF7B9F90390FFE743F60000C4F260
:1038F0000200006800F000710020B0EB516F0CD0A6
:10390000FFE7FFF7A9F90399401A032804D3FFE75B
:1039100003208DF8170052E0E7E7FFE74AE004983C
:103920008069012804D1FFE701208DF8170046E0E7
:1039300043F60400C4F20200006802900498806913
:10394000012831D0FFE7029800F480000499C9698A
:10395000884229D1FFE7029800F03F000499096AE4
:10396000884221D1FFE7029847F6C07108400499C8
:10397000496AB0EB811F17D1FFE7029800F440308D
:103980000499896AC9034FF6FF729143A1F580310A
:10399000884209D1FFE7029800F070600499C96A73
:1039A000B0EB016F04D0FFE701208DF8170006E0AF
:1039B000FFE7FFE7FFE700208DF81700FFE79DF81E
:1039C000170006B080BD000081B0009001B07047C4
:1039D00081B0009001B0704785B003900291FFE77D
:1039E000039890F83C00012804D1FFE702208DF8ED
:1039F00013007EE00399012081F83C00FFE7FFE718
:103A00000399022081F83D00039800684068019006
:103A10000398006880680090019820F07000019081
:103A20000298016801980843019001980399096878
:103A30004860039800680021C4F2010188423CD02C
:103A4000FFE703980068B0F1804F36D0FFE7039896
:103A5000006840F20041C4F2000188422DD0FFE727
:103A60000398006840F60001C4F20001884224D0A7
:103A7000FFE70398006840F60041C4F20001884265
:103A80001BD0FFE70398006840F20041C4F2010137
:103A9000884212D0FFE70398006844F20001C4F2A4
:103AA0000101884209D0FFE70398006841F6000150
:103AB000C4F2000188420ED1FFE7009820F0800098
:103AC000009002984168009808430090009803997C
:103AD00009688860FFE70399012081F83D00FFE74E
:103AE0000399002081F83C00FFE700208DF81300C7
:103AF000FFE79DF8130005B07047000080B582B065
:103B00000090009820B9FFE701208DF807003FE002
:103B1000009890F83D0040B9FFE70099002081F837
:103B20003C00009800F038F8FFE70099022081F887
:103B30003D00009951F8040B04F024F9009901208C
:103B400081F84600FFE70099012081F83E000099C6
:103B500081F83F00009981F84000009981F8410008
:103B6000FFE7FFE70099012081F84200009981F802
:103B70004300009981F84400009981F84500FFE76F
:103B80000099012081F83D0000208DF80700FFE733
:103B90009DF8070002B080BD80B584B00390039803
:103BA00000680021C4F2010188421BD1FFE7FFE752
:103BB0000020029043F64400C4F20200016841F084
:103BC00001010160006800F0010002900298FFE727
:103BD0001920019005210022FFF71AF90198FFF73B
:103BE0000DF9FFE704B080BD83B00190019890F813
:103BF0003D00012804D0FFE701208DF80B0064E0B0
:103C00000199022081F83D00019800680021C4F26A
:103C1000010188423CD0FFE701980068B0F1804F75
:103C200036D0FFE70198006840F20041C4F200017D
:103C300088422DD0FFE70198006840F60001C4F2E9
:103C40000001884224D0FFE70198006840F6004157
:103C5000C4F2000188421BD0FFE70198006840F2DF
:103C60000041C4F20101884212D0FFE701980068C8
:103C700044F20001C4F20101884209D0FFE7019833
:103C8000006841F60001C4F20001884212D1FFE74A
:103C900001980068806800F00700009000980628EE
:103CA00007D0FFE701980168086840F0010008604C
:103CB000FFE706E001980168086840F0010008602D
:103CC000FFE700208DF80B00FFE79DF80B0003B025
:103CD0007047000083B00190019890F83D000128E2
:103CE00004D0FFE701208DF80B006AE00199022063
:103CF00081F83D0001980168C86840F00100C86083
:103D0000019800680021C4F2010188423CD0FFE71D
:103D100001980068B0F1804F36D0FFE70198006845
:103D200040F20041C4F2000188422DD0FFE7019823
:103D3000006840F60001C4F20001884224D0FFE789
:103D40000198006840F60041C4F2000188421BD08F
:103D5000FFE70198006840F20041C4F20101884287
:103D600012D0FFE70198006844F20001C4F201019B
:103D7000884209D0FFE70198006841F60001C4F2CB
:103D80000001884212D1FFE701980068806800F0C6
:103D9000070000900098062807D0FFE70198016807
:103DA000086840F001000860FFE706E0019801683C
:103DB000086840F001000860FFE700208DF80B0064
:103DC000FFE79DF80B0003B07047000080B586B098
:103DD0000490039100208DF80B00FFE7049890F801
:103DE0003C00012804D1FFE702208DF81700ABE06A
:103DF0000499012081F83C00FFE7FFE704990220C5
:103E000081F83D000498006880680190019820F0D6
:103E100077000190019820F47F4001900198049967
:103E200009688860039800680090002872D0FFE756
:103E3000009810286ED0FFE7009820286AD0FFE78E
:103E40000098302866D0FFE70098402855D0FFE75B
:103E50000098502837D0FFE70098602840D0FFE74F
:103E6000009870280BD0FFE70098B0F5805F05D070
:103E7000FFE70098B0F5005F16D052E055E00498D7
:103E80000068039B5A689968DB6804F069F8049835
:103E9000006880680190019840F0770001900198D7
:103EA00004990968886040E004980068039B5A6898
:103EB0009968DB6804F054F804980168886840F455
:103EC0008040886031E004980068039A5168D268A5
:103ED00004F032FA04980068502104F05BF824E002
:103EE00004980068039A5168D26804F04DFA049867
:103EF0000068602104F04EF817E004980068039A07
:103F00005168D26804F018FA04980068402104F05F
:103F100041F80AE0049800680399096804F03AF847
:103F200003E001208DF80B00FFE70499012081F8E0
:103F30003D00FFE70499002081F83C00FFE79DF871
:103F40000B008DF81700FFE79DF8170006B080BD45
:103F500081B0009001B0704780B584B003900398A1
:103F60000068C068029003980068006901909DF89D
:103F700004008007002824D5FFE79DF8080080078B
:103F800000281DD5FFE7039801686FF00200086163
:103F9000039901200877039800688069800720B1A1
:103FA000FFE70398FFF7D4FF06E0039800F018F945
:103FB000039800F029FAFFE7039900200877FFE74C
:103FC000FFE79DF804004007002825D5FFE79DF88E
:103FD0000800400700281ED5FFE7039801686FF02E
:103FE000040008610399022008770398006880693B
:103FF00010F4407F04D0FFE70398FFF7A9FF06E025
:10400000039800F0EDF8039800F0FEF9FFE703993C
:1040100000200877FFE7FFE79DF80400000700286D
:1040200024D5FFE79DF80800000700281DD5FFE70D
:10403000039801686FF0080008610399042008776D
:1040400003980068C069800720B1FFE70398FFF775
:104050007FFF06E0039800F0C3F8039800F0D4F95E
:10406000FFE7039900200877FFE7FFE79DF80400CA
:10407000C006002825D5FFE79DF80800C0060028E7
:104080001ED5FFE7039801686FF0100008610399DF
:104090000820087703980068C06910F4407F04D0B6
:1040A000FFE70398FFF754FF06E0039800F098F845
:1040B000039800F0A9F9FFE7039900200877FFE7CC
:1040C000FFE79DF80400C00778B1FFE79DF80800FE
:1040D000C00748B1FFE7039801686FF0010008616D
:1040E000039800F07BFAFFE7FFE79DF80400000665
:1040F000002810D5FFE79DF808000006002809D524
:10410000FFE7039801686FF0800008610398FFF7EC
:104110005BFCFFE7FFE79DF804004006002810D590
:10412000FFE79DF808004006002809D5FFE703983F
:1041300001686FF040000861039800F0F1FBFFE7B1
:10414000FFE79DF804008006002810D5FFE79DF8E2
:1041500008008006002809D5FFE7039801686FF082
:10416000200008610398FFF733FCFFE7FFE704B086
:1041700080BD000080B588B00790002006900590B3
:104180000490039002900798006841F60001C4F281
:104190000001884222D1FFE7FFE70020019043F6AB
:1041A0003000C4F20200016841F080010160006843
:1041B00000F0800001900198FFE74020029002206B
:1041C00003900020049005900920069041F60040DD
:1041D000C4F2020002A9FEF71BFBFFE708B080BD96
:1041E00081B0009001B0704780B586B00490039113
:1041F000029200208DF80700FFE7049890F83C0039
:10420000012804D1FFE702208DF8170089E0049906
:10421000012081F83C00FFE7FFE7029800900C289E
:1042200000F270800099DFE801F0076D6D6D206D80
:104230006D6D3A6D6D6D530004980068039903F03D
:10424000BFFE04980168886940F0080088610498FE
:104250000168886920F00400886103980269049865
:10426000016888691043886150E0049800680399E8
:1042700003F01CFF04980168886940F400608861BD
:1042800004980168886920F4806088610398026955
:1042900004980168886940EA0220886136E0049841
:1042A0000068039903F07CFF04980168C86940F036
:1042B0000800C86104980168C86920F00400C8615A
:1042C0000398026904980168C8691043C8611DE039
:1042D00004980068039903F0DDFF04980168C86939
:1042E00040F40060C86104980168C86920F48060E7
:1042F000C8610398026904980168C86940EA02200D
:10430000C86103E001208DF80700FFE7FFE704998B
:10431000002081F83C00FFE79DF807008DF81700AA
:10432000FFE79DF8170006B080BD000080B582B0A1
:104330000090009820B9FFE701208DF807003FE0CA
:10434000009890F83D0040B9FFE70099002081F8FF
:104350003C00009800F038F8FFE70099022081F84F
:104360003D00009951F8040B03F00CFD0099012069
:1043700081F84600FFE70099012081F83E0000998E
:1043800081F83F00009981F84000009981F84100D0
:10439000FFE7FFE70099012081F84200009981F8CA
:1043A0004300009981F84400009981F84500FFE737
:1043B0000099012081F83D0000208DF80700FFE7FB
:1043C0009DF8070002B080BD82B00190019800689E
:1043D00041F60001C4F20001884212D1FFE7FFE775
:1043E0000020009043F64000C4F20200016841F052
:1043F00040010160006800F0400000900098FFE775
:10440000FFE702B07047000081B0009001B0704734
:1044100080B58CB00A900991099828B9FFE70A98ED
:1044200090F83E0007901CE00998042805D1FFE7AA
:104430000A9890F83F00069010E00998082805D1E6
:10444000FFE70A9890F84000059004E00A9890F879
:1044500041000590FFE705980690FFE70698079052
:10446000FFE70798012804D0FFE701208DF82F000F
:10447000AFE0099828B9FFE70A99022081F83E00C9
:104480001EE00998042806D1FFE70A99022081F866
:104490003F00049012E00998082806D1FFE70A9926
:1044A000022081F84000039005E00A99022081F87B
:1044B00041000390FFE703980490FFE70498FFE7AB
:1044C0000A98006809990122019203F02DFD0198D4
:1044D0000A9909680022C4F20102914202900CD0AC
:1044E000FFE70A9800684FF60041CBF6FE710844DA
:1044F000B0FA80F040090290FFE70298C00738B197
:10450000FFE70A980168486C40F400404864FFE700
:104510000A9800680021C4F2010188423CD0FFE7FC
:104520000A980068B0F1804F36D0FFE70A9800681B
:1045300040F20041C4F2000188422DD0FFE70A9802
:10454000006840F60001C4F20001884224D0FFE771
:104550000A98006840F60041C4F2000188421BD06E
:10456000FFE70A98006840F20041C4F20101884266
:1045700012D0FFE70A98006844F20001C4F201017A
:10458000884209D0FFE70A98006841F60001C4F2AA
:104590000001884212D1FFE70A980068806800F0A5
:1045A000070008900898062807D0FFE70A980168D6
:1045B000086840F001000860FFE706E00A9801681B
:1045C000086840F001000860FFE700208DF82F0028
:1045D000FFE79DF82F000CB080BD000080B58CB0C7
:1045E0000B900B9800680021C4F20101884240F052
:1045F0008381FFE740F2C430C2F20000089090EDE2
:10460000020A40F22000C2F2000090ED071A30EEDC
:10461000410A8DED0A0A40F28810C2F2000090F8BB
:1046200001216946642088600A2048601E200860D5
:1046300040F26840C2F2000040F6EC71C2F20001A4
:10464000142301F07FFA40F6D070C2F2000090ED22
:10465000000A40F2F400C2F20000B0F90410B0F910
:10466000240001EE101AB8EEC11AB0EEC11A02EE23
:10467000100AB8EEC22AF0EEC20AB4EE601AF1EEE9
:1046800010FAB8BFF0EE410A40F27C40C2F20000DE
:1046900004F01EFD40F2B040C2F2000090ED020AAC
:1046A00040F21850C2F2000090ED001A30EE010AFC
:1046B000DFED970AFCF7F4FC089840F24801C2F2DB
:1046C0000001099181ED000A90ED020ADFED910AE7
:1046D000FCF7E6FC099981ED010A45F25430C2F27B
:1046E0000000806A88600020C86040F23410C2F286
:1046F000000090ED0B0ABDEEC00A10EE100A02F0A9
:10470000B1FE01282ED1FFE741F27800C2F200008D
:10471000049090ED000A40F2F400C2F2000005900F
:10472000D0ED030A40F26400C2F20000069002F0ED
:10473000F9FD049A05990698BDEEC00A10EE103AEC
:10474000079392ED000AB1EE400AD1ED0B0A483012
:1047500002F0E8FD0798BDEEC00A10EE101AFCF753
:1047600025FCFFE740F6D070C2F2000090ED020A8F
:10477000D0ED030A90ED041A0020039007F076F8BC
:10478000039804F075FD012819D1FFE740F6522087
:10479000C2F20000B0F90000FCF756FC40F22C40D9
:1047A000C2F20000407E40B9FFE740F65821C2F255
:1047B000000108680130086000E0FFE7FFE740F211
:1047C000D040C2F200000068B0F5FA6F01D9FFE7EF
:1047D00007E040F2D041C2F20001086801300860F1
:1047E000FFE740F26840C2F20000007A032841D09F
:1047F000FFE740F6D070C2F2000090ED051A45F2D6
:10480000A440C2F2000090ED000A30EE410A80EDB3
:10481000000A90ED000A9FED401AB4EE410AF1EE55
:1048200010FA0DDDFFE745F2A440C2F2000090ED62
:10483000000A9FED3A1A30EE010A80ED000AFFE708
:1048400045F2A440C2F2000090ED000AB5EE400A25
:10485000F1EE10FA0DDAFFE745F2A440C2F20000D3
:1048600090ED000A9FED2C1A30EE010A80ED000A4F
:10487000FFE710E040F28810C2F2000090ED480A15
:10488000DFED230AFCF74CFC45F2A440C2F2000025
:1048900080ED000AFFE740F6502CC2F2000C9CF8B5
:1048A000000040F6C971C2F20001087040F21453D2
:1048B000C2F20003187840F6C871C2F20001087015
:1048C00045F29432C2F20002107840F6CB71C2F287
:1048D0000001087040F6CC71C2F20001087840F681
:1048E000CA7EC2F2000E8EF8000000208CF8000094
:1048F000187010700870FFE70B980068B0F1804FD7
:1049000003D1FFE7FEF7AEF9FFE70CB080BD00BFB3
:104910001C8A23C20000FA420000B4430000B4C362
:1049200081B0009001B0704780B586B004900391CB
:10493000ADF80A20049890F84200202848D1FFE7FB
:10494000039820B1FFE7BDF80A0020B9FFE7012076
:104950008DF8170040E004990120086304990020B5
:10496000486304980399BDF80A2004F02DF88DF8E7
:1049700009000498006B012821D1FFE7FFE7002020
:1049800001900498006800680190049800684068ED
:1049900001900198FFE7FFE7FFE70498006850E8FF
:1049A000030F40F010000090FFE7009904980268A0
:1049B00042E803100028F0D1FFE7FFE703E0012001
:1049C0008DF80900FFE79DF809008DF8170003E056
:1049D00002208DF81700FFE79DF8170006B080BD94
:1049E00080B582B00190ADF802100198006844F6DD
:1049F0000001C4F20001884241D1FFE740F2881073
:104A0000C2F2000090F83801512815D1FFE740F2BA
:104A10008810C2F2000090F8390159280CD1FFE744
:104A200040F28811C2F2000101F1E80001F59C7129
:104A30008022FBF708FC0AE040F28810C2F2000076
:104A400000F59C704FF48071FBF716FCFFE740F215
:104A50009060C2F200000168086820F00800086059
:104A600040F28810C2F2000000F59C7140F6781008
:104A7000C2F200004FF48072FFF756FF00E0FFE73C
:104A800002B080BD81B0009001B0704780B592B097
:104A90001190119800680068109011980068C06823
:104AA0000F901198006840690E9000200D900C90B6
:104AB000109800F00F000D900D9888B9FFE79DF851
:104AC0004000800600280AD5FFE79DF83C008006DC
:104AD000002804D5FFE7119803F024FE02E2FFE767
:104AE0000D98002800F0C280FFE79DF83800C0074D
:104AF00038B9FFE7BDF83C0010F4907F00F0B680B5
:104B0000FFE79DF84000C00758B1FFE79DF83D0062
:104B1000C00730B1FFE71199486C40F001004864CC
:104B2000FFE79DF84000400700280BD5FFE79DF800
:104B30003800C00730B1FFE71199486C40F002001F
:104B40004864FFE79DF84000800700280BD5FFE789
:104B50009DF83800C00730B1FFE71199486C40F06C
:104B600004004864FFE79DF840000007002811D5C5
:104B7000FFE79DF83C008006002805D4FFE79DF87C
:104B80003800C00730B1FFE71199486C40F00800C9
:104B90004864FFE71198406C002866D0FFE79DF855
:104BA0004000800600280AD5FFE79DF83C008006FB
:104BB000002804D5FFE7119803F0B4FDFFE7119832
:104BC00000684069C0F380100C901198406C000799
:104BD000002804D4FFE70C9800283ED0FFE7119886
:104BE00003F026FD119800684069400600282FD583
:104BF000FFE7FFE7FFE71198006850E8050F20F096
:104C000040000B90FFE70B991198026842E80510ED
:104C10000028F0D1FFE7FFE71198C06B98B1FFE7DC
:104C20001198C16B48F2DD30C0F60000086511989C
:104C3000C06BFDF721FB28B1FFE71198C06B016D38
:104C40008847FFE703E01198FFF71CFFFFE703E049
:104C50001198FFF717FFFFE706E01198FFF712FF23
:104C6000119900204864FFE7FFE73BE11198006BD2
:104C7000012840F01781FFE79DF84000C00600289A
:104C800040F11081FFE79DF83C00C006002840F18C
:104C90000981FFE7FFE700200A901198006800688B
:104CA0000A901198006840680A900A98FFE71198E6
:104CB000006840694006002840F19A80FFE711989B
:104CC000C06B00684068ADF82600BDF826000028DB
:104CD00075D0FFE7BDF826001199898D88426EDAFC
:104CE000FFE7BDF826001199C8851198C06BC0690F
:104CF000B0F5807F58D0FFE7FFE7FFE71198006825
:104D000050E8030F20F480700890FFE7089911988D
:104D1000026842E803100028F0D1FFE7FFE7FFE751
:104D2000FFE71198006850E8050F20F00100079098
:104D3000FFE707991198026842E805100028F0D1B2
:104D4000FFE7FFE7FFE7FFE71198006850E8050F6E
:104D500020F040000690FFE706991198026842E8AB
:104D600005100028F0D1FFE7FFE71199202081F816
:104D70004200119900200863FFE7FFE711980068DF
:104D800050E8030F20F010000590FFE705991198F7
:104D9000026842E803100028F0D1FFE7FFE711980E
:104DA000C06BFDF7F3F9FFE71199022048631198F2
:104DB000818DC28D891A89B2FFF712FE17E0BDF806
:104DC00026001199898D884210D1FFE71198C06B98
:104DD000C069B0F5807F08D1FFE7119902204863D0
:104DE0001198818DFFF7FCFDFFE7FFE7FFE779E012
:104DF0001199888DC98D401AADF812001198C08D97
:104E000000284ED0FFE7BDF81200002849D0FFE788
:104E1000FFE7FFE71198006850E8030F20F4907057
:104E20000390FFE703991198026842E803100028F5
:104E3000F0D1FFE7FFE7FFE7FFE71198006850E8D0
:104E4000050F20F001000290FFE702991198026817
:104E500042E805100028F0D1FFE7FFE71199202074
:104E600081F84200119900200863FFE7FFE71198DD
:104E7000006850E8030F20F010000190FFE701994F
:104E80001198026842E803100028F0D1FFE7FFE71D
:104E90001199022048631198BDF81210FFF7A0FD88
:104EA000FFE71FE09DF84000000600280AD5FFE755
:104EB0009DF83C000006002804D5FFE7119803F098
:104EC0001BFE0FE09DF84000400600280AD5FFE7D2
:104ED0009DF83C004006002804D5FFE7119803F038
:104EE000F1FBFFE712B080BD80B582B00090009862
:104EF00020B9FFE701208DF8070040E000988069A5
:104F000008B1FFE700E0FFE7009890F8410040B9E2
:104F1000FFE70099002081F84000009800F034F885
:104F2000FFE70099242081F8410000980168C868D3
:104F300020F40050C860009803F0A8FC00980168B5
:104F4000086920F49040086100980168486920F0E1
:104F50002A00486100980168C86840F40050C860A1
:104F6000009900204864009A202182F84110009A9C
:104F700082F84210009948638DF80700FFE79DF81A
:104F8000070002B080BD000080B5A0B01F900020D7
:104F90001E901D901C901B901A901F98006847F659
:104FA0000001C4F20001884235D1FFE7FFE700208D
:104FB000199043F64000C4F20200016841F08041BC
:104FC0000160006800F0804019901998FFE7FFE742
:104FD0000020189043F63000C4F20200016841F04E
:104FE00010010160006800F0100018901898FFE7A9
:104FF0004FF4C0701A9002201B9000201C900320D8
:105000001D9008201E9041F20000C4F202001AA96F
:10501000FDF7FEFB46E21F98006841F20001C4F272
:105020000101884267D1FFE7FFE70020179043F6B0
:105030004400C4F20200016841F010010160006800
:1050400000F0100017901798FFE7FFE70020169078
:1050500043F63000C4F20200016841F00201016031
:10506000006800F0020016901698FFE7C0201A9022
:1050700002201B9000200E901C9003201D90072002
:105080001E9040F20040C4F202001AA9FDF7C0FBD6
:105090000E9940F27050C2F200000F9046F240426A
:1050A000C4F2020202604FF0006242608160C1609F
:1050B0004FF48062026141618161C16101624162BC
:1050C000FDF78CFA18B1FFE7FBF76CFFFFE7FFE78E
:1050D0001F9840F27051C2F20001C1631F988863AB
:1050E000FFE725200D9005210022FDF791FE0D9888
:1050F000FDF784FED5E11F98006844F20041C4F238
:105100000001884240F09280FFE7FFE70020159001
:1051100043F64000C4F20200016841F4003101602E
:10512000006800F4003015901598FFE7FFE70020B5
:10513000149043F63000C4F20200016841F0080107
:105140000160006800F0080014901498FFE76020E8
:105150001A9002201B9000200B901C9003201D90A1
:1051600007201E9040F60040C4F202001AA9FDF785
:105170004FFB0B9940F2D050C2F200000C9046F267
:105180008802C4F2020202604FF000624260816055
:10519000C1604FF48062026141618161C16101625D
:1051A0004162FDF71BFA18B1FFE7FBF7FBFEFFE7D3
:1051B000FFE71F9840F2D051C2F20001C1631F986F
:1051C0008863FFE740F23060C2F200000A9046F2C6
:1051D000A001C4F2020101604FF000614160402172
:1051E00081600021C1604FF4806202614161816190
:1051F000C16101624162FDF7F1F918B1FFE7FBF708
:10520000D1FEFFE7FFE71F9840F23061C2F20001D4
:1052100081631F988863FFE72620099005210022FB
:10522000FDF7F6FD0998FDF7E9FD39E11F980068E3
:1052300044F60001C4F20001884240F09380FFE789
:10524000FFE70020139043F64000C4F2020001681B
:1052500041F480210160006800F4802013901398CD
:10526000FFE7FFE70020129043F63000C4F202008F
:10527000016841F008010160006800F00800129028
:105280001298FFE74FF440701A9002201B90002004
:1052900007901C9003201D9007201E9040F60040B0
:1052A000C4F202001AA9FDF7B3FA079940F2906020
:1052B000C2F20000089046F22802C4F20202026024
:1052C0004FF0006242608160C1604FF48062026111
:1052D00041618161C16101624162FDF77FF918B1ED
:1052E000FFE7FBF75FFEFFE7FFE71F9840F29061E3
:1052F000C2F20001C1631F988863FFE740F2F060CB
:10530000C2F20000069046F25801C4F202010160A8
:105310004FF000614160402181600021C1604FF485
:105320008062026141618161C16101624162FDF798
:1053300055F918B1FFE7FBF735FEFFE7FFE71F98C8
:1053400040F2F061C2F2000181631F988863FFE7B9
:105350002720059005210022FDF75AFD0598FDF74D
:105360004DFD9CE01F98006841F20041C4F201012C
:10537000884240F09380FFE7FFE70020119043F65A
:105380004400C4F20200016841F02001016000689D
:1053900000F0200011901198FFE7FFE70020109027
:1053A00043F63000C4F20200016841F040010160A0
:1053B000006800F0400010901098FFE74FF4844020
:1053C0001A9002201B90002003901C9003201D9037
:1053D00008201E9041F60000C4F202001AA9FDF751
:1053E00017FA039940F25070C2F20000049046F29E
:1053F0002842C4F2020202604FF0206242608160E3
:10540000C1604FF48062026141618161C1610162EA
:105410004162FDF7E3F818B1FFE7FBF7C3FDFFE7D3
:10542000FFE71F9840F25071C2F20001C1631F985C
:105430008863FFE740F2B070C2F20000029046F2CB
:10544000A041C4F2020101604FF02061416040219F
:1054500081600021C1604FF480620261416181611D
:10546000C16101624162FDF7B9F818B1FFE7FBF7CE
:1054700099FDFFE7FFE71F9840F2B071C2F200010B
:1054800081631F988863FFE7472001900521002270
:10549000FDF7BEFC0198FDF7B1FCFFE7FFE7FFE772
:1054A000FFE7FFE720B080BD80B584B00290019196
:1054B000ADF80220029890F84200202817D1FFE7AB
:1054C000019820B1FFE7BDF8020020B9FFE70120F5
:1054D0008DF80F000FE002990020086302980199EF
:1054E000BDF8022003F070FA8DF80F0003E00220EF
:1054F0008DF80F00FFE79DF80F0004B080BD00009D
:1055000080B588B007900798006841F20001C4F2A6
:105510000101884227D1FFE740F6EC70C2F200009B
:1055200000780F2813D1FFE740F6EC70C2F20000BC
:10553000007E60B9FFE740F6EC71C2F2000106910F
:10554000084605F049FF069806F00AF8FFE740F61E
:10555000E800C2F2000040F6EC71C2F2000119222C
:10556000FFF7A2FFFFE70798006844F20041C4F28A
:105570000001884240F00681FFE745F25430C2F254
:1055800000000590017890F801C08378C2786144EA
:105590001944114402791144427911448279114429
:1055A000C2791144027A1144427A1144417300785D
:1055B000552840F0BA80FFE745F25430C2F20000AF
:1055C000817A407B884240F0AF80FFE745F254305B
:1055D000C2F20000407801460491522808D0FFE74B
:1055E0000498532833D0FFE7049859285ED099E0F7
:1055F00045F25430C2F2000003908278C17809026B
:1056000009B2114400EE101AB8EEC00A9FED611AFB
:1056100020EE010A80ED060A02794179090209B2F9
:10562000114400EE101AB8EEC00A20EE010A80ED17
:10563000070A8279C179090209B2114400EE101AF1
:10564000B8EEC00A20EE010A80ED080A6BE045F2D0
:105650005430C2F2000002908278C178090209B287
:10566000114400EE101AB8EEC00A9FED491A20EE60
:10567000010A80ED090A02794179090209B211444F
:1056800000EE101AB8EEC00A20EE010A80ED0A0AF8
:105690008279C179090209B2114400EE101AB8EEFC
:1056A000C00A20EE010A80ED0B0A3CE045F25430BE
:1056B000C2F2000001908278C178090209B2114457
:1056C00000EE101AB8EEC00A9FED301A20EE010A63
:1056D00080ED0C0A02794179090209B2114400EE09
:1056E000101AB8EEC00A20EE010A80ED0D0A827988
:1056F000C179090209B2114400EE101AB8EEC00ACD
:1057000020EE010A80ED0E0A027A417A090209B2FE
:10571000114400EE101AB8EEC00A20EE010A80ED26
:105720000F0A00E0FFE7FFE7FFE745F2A840C2F2FB
:105730000000007888B9FFE745F25430C2F200005B
:10574000C06A40F27C11C2F20001086045F2A84133
:10575000C2F2000101200870FFE740F63010C2F2EB
:10576000000045F25431C2F200010B22FFF79CFE0B
:1057700040F2D050C2F200000168086820F0080032
:10578000086000E0FFE708B080BD00BF00000038FF
:105790000000B43B00007A3D81B0009001B070473A
:1057A00080B58AB008900791ADF81A2005930020C3
:1057B0000290089890F84100202840F08180FFE78F
:1057C000079820B1FFE7BDF81A0020B9FFE70120D4
:1057D0008DF8270078E00899002048640899212076
:1057E00081F84100FDF738FA0290BDF81A000899D7
:1057F0008884BDF81A000899C88408988068B0F5B4
:10580000805F09D1FFE70898006928B9FFE7002009
:1058100004900798039004E00798049000200390F8
:10582000FFE7FFE70898C08C78B3FFE70898029B72
:1058300005996A4611608021002203F0A7F940B162
:10584000FFE70899202081F8410003208DF8270008
:105850003AE0049858B9FFE7039800886FF35F2097
:1058600008990968486003980230039008E004989A
:105870000078089909684860049801300490FFE7AF
:105880000899C88C0138C884CCE70898029B059910
:105890006A4611604021002203F078F940B1FFE729
:1058A0000899202081F8410003208DF827000BE0A3
:1058B0000899202081F8410000208DF8270003E09E
:1058C00002208DF82700FFE79DF827000AB080BD71
:1058D00080B586B004900391ADF80A20049890F842
:1058E000410020286AD1FFE7039820B1FFE7BDF807
:1058F0000A0020B9FFE701208DF8170062E0039845
:1059000004990862BDF80A0004998884BDF80A0069
:105910000499C884049900204864049A212182F8DB
:10592000411004998A6B48F29D51C0F60001D16381
:1059300004998A6B48F21961C0F600011164049958
:105940008A6B48F2F931C0F60001D1640499896B81
:10595000086503A8019004980268806B01990968A2
:105960000432BDF80A30FCF7F1FE58B1FFE70499A4
:10597000102048640499202081F8410001208DF80E
:1059800017001FE0049801686FF040000860FFE70F
:10599000FFE70498006850E8050F40F08000009091
:1059A000FFE700990498026842E805100028F0D14A
:1059B000FFE7FFE700208DF8170003E002208DF8D5
:1059C0001700FFE79DF8170006B080BD81B000907A
:1059D00001B0704781B0009001B07047FFE7FEE76B
:1059E00085B004908DED030ACDED020A8DED011A0C
:1059F000CDED001A04990020C860049A0021C4F279
:105A0000D01111600399049A51600299049A91602F
:105A10000199049A1161049981F82F00049A0021D8
:105A2000C4F24001D161049991ED041AB7EE000A65
:105A300080EE010A81ED090A049988620099049AAE
:105A40001162049A032182F82D10049A82F82E1014
:105A50000499486104998861049981F82C0004999B
:105A600081F8300005B0704784B0DDF810C00390B5
:105A70000291019200930398007A20B9FFE70298FF
:105A8000039948601DE00398007A012804D1FFE7DC
:105A900001980399486013E00398007A022804D122
:105AA000FFE700980399486009E00398007A03280B
:105AB00004D1FFE7049803994860FFE7FFE7FFE799
:105AC000FFE704B07047000083B001908DF8031029
:105AD000019890F86E0020B9FFE700208DF80B00C8
